:020000000C945E
:10000200B3000C9400000C9400000C9400000C94BB
:1000120000000C9400000C9400000C9400000C945E
:1000220000000C9400000C9400000C9400000C944E
:1000320000000C94E0000C9400000C946A010C94F3
:1000420000000C9400000C9400000C9400000C942E
:1000520000001027E80364000A00010000100001FC
:100062001000010000000000000000004F4E20447C
:10007200494E48203A2031303025004F4E20444925
:100082004E48203A20393025004F4E2044494E48F0
:10009200203A20383025004F4E2044494E48203A1D
:1000A20020373025004F4E2044494E48203A203612
:1000B2003025004F4E2044494E48203A2035302505
:1000C200004F4E2044494E48203A20343025004308
:1000D200414E482042414F203A20333025004341CF
:1000E2004E482042414F203A20323025004E47559B
:1000F20059204849454D203A20313025004E475578
:1001020059204849454D203A2030250080C0010041
:10011200020066000600040068000F0060026E0024
:100122000E006F027D000E007D028B000E008B021E
:1001320099000E009902A7000E00A702B5000E005A
:10014200B502C3000F00C302D1000F00D202E000CB
:100152001000E102EF000F00F102FF0002001003A5
:100162000E010000F894EE27ECBBF1E0FBBFEBBF01
:10017200E5BF8DE0A2E0BB27ED938A95E9F780E029
:1001820098E0A0E6ED930197E9F7E0E1F1E08591CF
:100192009591009761F0A591B59105901590BF01D9
:1001A200F00105900D920197E1F7FB01F0CFEFE529
:1001B200EDBFE8E0EEBFC0E6D2E00C949B010A92EC
:1001C2001A92FA926A937A938A939A93AA93BA9317
:1001D200EA93FA93EFB7EA931A930A931BB10CB11D
:1001E200E12FEC7109F065C0013439F40E94740208
:1001F200A0E6B2E00E947C025AC0023439F40E94A6
:100202007402AFE6B2E00E947C0251C0033439F4BA
:100212000E947402ADE7B2E00E94340246C0043488
:1002220039F40E947402ABE8B2E00E947C023FC043
:10023200053439F40E947402A9E9B2E00E94340242
:1002420034C0063439F40E947402A7EAB2E00E9474
:1002520034022BC0073439F40E947402A5EBB2E0D9
:100262000E947C0224C0083439F40E948102A3EC6B
:10027200B2E00E9488021DC0093439F40E94810252
:10028200A2EDB2E00E94880214C00B3429F40E944D
:100292008102A1EEB2E006C00C3459F40E94810240
:1002A200A1EFB2E00E943402979AA4EFB1E00E945B
:1002B2009F0209911991E991EFBFF991E991B991E1
:1002C200A9919991899179916991F99019900990DF
:1002D2001895EA93FA93EFB7EA93882061F08A942B
:1002E200E92D9394F0E0E85FFC4FE081ECB9E8E09F
:1002F200E91509F49924E991EFBFF991E99118956B
:10030200AA93E8E0E815E9F3F894882011F45D99DE
:100312000DC0E62D6394F0E0E85FFC4FA881A08356
:10032200E8E0E61509F46624839402C0E881ECB99A
:100332007894D7C0E0E0EABBEBBBE7BBE8BBE4BB29
:10034200E5BBE0E8E1BBE0E0E2BBE3BFE2BFECBF5C
:10035200EFBDEEBDEDBDECBDE7BDE6BDEBBDEABD5B
:10036200E9BDE8BDE2BDE5BDE4BDE3BDE9BFE5BF72
:10037200E4BFEBB9E8EDEAB9E6E8E0BDE0E0E0BDF4
:10038200E3E3E9B9E0E8E8B9E0E0E0BFE6B9EDB9F6
:10039200E6BFA0E179D07894A9E5B2DFA0EDB7E09D
:1003A2000E949F02F9CFFFCFAA93E881E07111F07A
:1003B200AB9A01C0AB98E881E07211F0AA9A01C031
:1003C200AA98E881E07411F0A99A01C0A998E8817D
:1003D200E07811F0A89A01C0A8988DE08A95F1F70B
:1003E200AE9A8DE08A95F1F7AE988DE08A95F1F795
:1003F20078C0AA93A881D8DFE881E295E883A88132
:10040200D3DF85E88A95F1F76CC0AA93E881F0E022
:10041200E05FFC4FE081A981AE0FEBDFB980A880DD
:1004220022960895A2E00E949102ACE0E2DFA1E0F0
:100432000E949102E0E0AE2EBE2E0895AA93A881FA
:10044200AA3011F0BD1448F0E0E0EA93A394AA2D7B
:10045200DCDFA881AA3009F444C0B394AC9AA88125
:10046200C8DFAC983EC0BA93AA931A93A981BA8105
:10047200ED91A983BA831E2FE03019F0A12FDEDFA0
:10048200F5CF188123960895AA93A39AA29AA19AC6
:10049200A09AA69AA49AA59AAE98AC98AD98D8803C
:1004A200E881E058E0931203E881E054E0931303FB
:1004B200A4E1B0E00E949F020E9497020E9497026C
:1004C2000E949702A0E270DF88EC90E00197F1F7BA
:1004D200A8E28FDFA4E08DDFA5E88BDFA6E089DF4D
:1004E200A1DF2196089597980E941302E0E0EA9313
:1004F200A0E00C9406020E943402A8EEB3E0089534
:100502000E941302E0E0EA93A0E00C9406020E942B
:100512003402979AA8EEB3E00E949F02979808953A
:100522000E94FA01A3E0B0E00C949F02A0E30E94B3
:10053200D50188EC90E00197F1F70895109639F013
:1005420080ED97E00197F1F7A8951197C9F7089503
:00000001FF
