:080000000C94A3000C94000015
:100008000C9400000C9400000C9400000C94000068
:100018000C9400000C9400000C9400000C94000058
:100028000C9400000C9400000C9400000C94DE0169
:100038000C9400000C94ED010C9400000C9400004A
:100048000C9400000C9400000C9400001027E803A6
:1000580064000A0001000010000110000100000007
:100068000000000000004F4E2044494E48003A204E
:1000780031303025003A20393025003A20383025F3
:10008800003A20373025003A20363025003A20350E
:100098003025003A203430250043414E4820424163
:1000A8004F003A20333025003A20323025004E47A1
:1000B8005559204849454D003A20313025003A200D
:1000C800302500476961205472693A20000080C0D9
:1000D80001000200660006000800680008006002CF
:1000E8006E0007006802760006006F027D000600B9
:1000F8007502830006007B028900060081028F00DA
:1001080006008702950006008D029B0009009302F5
:10011800A10006009C02AA000600A202B0000A0084
:10012800A802B6000600B202C0000500B802C60068
:100138000A00BD02CB000200D702D6000000F894E6
:10014800EE27ECBBF1E0FBBFEBBFE5BF8DE0A2E023
:10015800BB27ED938A95E9F780E098E0A0E6ED9358
:100168000197E9F7E8EDF0E085919591009761F046
:10017800A591B59105901590BF01F00105900D92DC
:100188000197E1F7FB01F0CFEFE5EDBFE8E0EEBF47
:10019800C0E6D2E00C941F02AA93E881E064E7B9B4
:1001A8008BE18A95F1F7369A349BFECF349AE4B105
:1001B800F5B10C9455032C97A0E0EEDF3F010E94A7
:1001C8005703EC83FD836E837F83AC81BD818E8171
:1001D8009F810E946A030E9477030E947C03E8873C
:1001E800F9876A877B872C960895BA93AA936097B4
:1001F8000E946605EE89FF890E945703EA8BFB8BF4
:100208006C8B7D8BAA89BB898C899D890E946A0326
:10021800EE87FF87688B798B0E942104EE83FF832A
:10022800AE81BF81E8EEF3E00E9446058F01AE8102
:10023800BF81E8EEF3E00E945905DF01E4E6F0E053
:100248000E9446059F01AE81BF81E4E6F0E00E946E
:100258005905DF01EAE0F0E00E944605AF01AE81F2
:10026800BF81EAE0F0E00E945905E887F987A02FEE
:10027800A05D0E94F602A22FA05D0E94F602ACE2E9
:100288000E94F602A42FA05D0E94F602A885A05D38
:100298000E94F602A6E50E94F602AE85BF8588890F
:1002A80099890E947C03EA87FB876C877D870E9477
:1002B80083030E94880309F008F43AC097980E94C3
:1002C8008F03A0E6B2E00E9494030E94970318F0FF
:1002D800A8E6B2E02AC00E9483030E949E0318F099
:1002E800AFE6B2E022C00E9483030E94A50318F083
:1002F800A5E7B2E01AC00E9483030E94AC0318F07D
:10030800ABE7B2E012C00E9483030E94B30318F067
:10031800A1E8B2E00AC00E9483030E94BA0318F061
:10032800A7E8B2E002C0ADE8B2E00E9416032EC012
:100338000E94C103B8F0979A0E948F03A3E9B2E024
:100348000E9494030E94C90318F0ACE9B2E002C00D
:10035800A2EAB2E00E941603A8EEB3E00E94E80306
:10036800979814C00E94C10388F4979A0E948F033B
:10037800A8EAB2E00E9494030E94D00318F0A2EB0E
:10038800B2E002C0A8EBB2E00E9416030E946D051D
:1003980068960895A0E000DF2F01ADEBB2E00E945F
:1003A8001603D20122DFA8EEB3E00E94E8030E9400
:1003B800E8020895EA93EFB7EA931A930A931BB1F8
:1003C8000CB1E12FEC7109911991E991EFBFE99115
:1003D8001895EA93FA93EFB7EA93CC2061F0CA94A0
:1003E800ED2DD394F0E0E153FD4FE081ECB9E8E066
:1003F800ED1509F4DD24E991EFBFF991E99118951C
:10040800AA93E8E0EC15E9F3F894CC2011F45D998F
:100418000DC0EA2DA394F0E0E153FD4FA881A0831D
:10042800E8E0EA1509F4AA24C39402C0E881ECB90B
:1004380078940C9455032497E0E0EABBEBBBE7BB48
:10044800E8BBE4BBE5BBE0E8E1BBE0E0E2BBE3BF5F
:10045800E2BFECBFEFBDEEBDEDBDECBDE7BDE6BD57
:10046800EBBDEABDE9BDE8BDE2BDE5BDE4BDE3BD68
:10047800E9BFE5BFE4BFEBB9E8EDEAB9E6E8E0BDFE
:10048800E0E0E0BDE3E3E9B9E0E8E8B9E0E4E7B9D2
:10049800E3E8E6B9E0E0E0BFEDB9E6BFA0E10E941D
:1004A8002703789488DE0E9477030E94970310F050
:1004B800A1E444C00E94D7030E949E0310F0A2E466
:1004C8003DC00E94D7030E94A50310F0A3E436C0E4
:1004D8000E94D7030E94AC0310F0A4E42FC00E942E
:1004E800D7030E94B30310F0A5E428C00E94D703E5
:1004F8000E94BA0310F0A6E421C00E94D7030E940C
:10050800880310F0A7E41AC00E94D7030E94C90309
:1005180010F0A8E413C00E94D703EEEAF7E469E3F9
:1005280071E40E94190510F0A9E408C00E94D703DD
:100538000E94D00310F0ABE401C0ACE461DF2ADF15
:10054800B1CFFFCFAA93E881E07111F0AB9A01C057
:10055800AB98E881E07211F0AA9A01C0AA98E881E4
:10056800E07411F0A99A01C0A998E881E07811F027
:10057800A89A01C0A8988DE08A95F1F7AE9A8DE007
:100588008A95F1F7AE988DE08A95F1F78AC0AA931B
:10059800A881D8DFE881E295E883A881D3DF85E8E0
:1005A8008A95F1F77EC0AA93E881F0E0E952FD4F01
:1005B800E081A981AE0FEBDFE981E093DB02E881FE
:1005C800E093DC0222960895A2E00E94DA03ACE0F0
:1005D800DEDFA1E00E94DA03E0E0E093DC02E093D2
:1005E800DB020895AA93A881AA3031F0E091DD02D8
:1005F800A091DB02AE1760F0E0E0EA93A091DC0284
:10060800AF5FA093DC02CFDFA881AA3009F449C00C
:10061800E091DB02EF5FE093DB02AC9AA881B7DFE1
:10062800AC983FC0BA93AA931A93A981BA81ED9165
:10063800A983BA831E2FE03019F0A12FD3DFF5CF9D
:10064800188123960895AA93A39AA29AA19AA09A88
:10065800A69AA49AA59AAE98AC98AD98E881E0932A
:10066800DD02E058E093D902E881E054E093DA0231
:10067800A4E1B0E00E94E8030E94E0030E94E003C6
:100688000E94E003A0E25EDF88EC90E00197F1F7BA
:10069800A8E27DDFA4E07BDFA5E879DFA6E077DFCD
:1006A80093DF21960895662777270E945804A0E0D3
:1006B800B0E080EA90E40E948604DF01CB01E0E02C
:1006C800F0EC6FE774E40E94D4040895E6E6F6E6D9
:1006D80066EB70E40E948604A0E0B0E088EC92E447
:1006E8000E94860408950E9461050E945C05089591
:1006F800E0E0F0E068EC72E40E94D4040895AA8572
:10070800BB858C859D850895E6E6F6E66EE371E483
:100718000E9419050895E1E0EA93A1E00C94D7023C
:100728000E941603ECCFE3E3F3E36BE471E40E9469
:1007380019050895E0E0F0E068E471E40E94190505
:100748000895E2E5F8EB66E471E40E94190508955E
:10075800E8EBFEE165E471E40E9419050895E3E31E
:10076800F3E363E471E40E9419050895E3ECF5EFFF
:1007780060E471E40E9419050895C1DFEEEAF7E428
:1007880069E371E40E9419050895E0E0F0E06CE384
:1007980071E40E9419050895E3ECF5EF64E371E450
:1007A8000E94190508950E945C0508950E94CB02D5
:1007B800A3E0B0E00C94E803A0E30E94A60288EC52
:1007C80090E00197F1F70895109639F080ED97E0E1
:1007D8000197F1F7A8951197C9F70895552342F4A1
:1007E800503811F4E0FF04C03196691F791F6BF08F
:1007F80050E8572711F45F9373C05F3F31F0660FDD
:10080800000C57956795752F08955F9300200AF09F
:1008180073C06CC050E8192E1522880F991F9527B0
:10082800550F879550E8072E0522660F771F752705
:10083800550F67950895689401C0E8945F93F2DFB7
:10084800703818F07F3F08F44BC056E1571BAAF4E4
:10085800519558300EF4593030F0EFEFFFEF6FEF4D
:100868007FE777F91AC077275523B9F0EE0FFF1FF6
:10087800661F771F5A95D1F710C07727583028F090
:10088800EF2FF62F672F5850F9CF552331F0769573
:100898006795F795E7955A95D1F700200AF4E5D0C2
:1008A8005F910895689401C0E89430976040704063
:1008B800B1F0002426F0772312F40094D6D0172E36
:1008C8007EE1112032F07A95EE0FFF1F661F111C92
:1008D800F9CFEF2FF62F612D5F938ADF5F9108958F
:1008E800EE27FF27662777275F910895EFEFFFEF41
:1008F8006FE77FEF5F910895EFEFFFEF6FE77FE717
:100908005F9108955F9386DF703851F3903841F313
:1009180001240894791F23F41CF300203AF3ECCF48
:100928000F921F932F933F934F93112722279927B5
:10093800689FA0018F9F302D410D591F6B9F300D6F
:10094800411D591F8E9F27D0BF9F25D06A9F23D056
:10095800BE9F1DD0AF9F1BD0AE9F110D291F391F01
:10096800491F591FE32FF42F652F522F4F913F91A5
:100978002F911F910F9066232AF0550FEE1FFF1F2E
:10098800661F02C073954BF229DF5F910895100D21
:10099800211D391F02C0200D311D491F591F0895FF
:1009A8005F9338DF703821F411200AF49FCFA4CF69
:1009B800903809F495CF01240894970B1BF4D4F3CD
:1009C8000020F3CF792F1F932F933F934F93112438
:1009D8001127222733274427552790E2AE17BF0750
:1009E8008607410730F0AE1BBF0B860B410B0894FE
:1009F80001C08894551F221F331F111CAA1FBB1F3B
:100A0800881F441F9A9551F7F901612D4F913F9125
:100A18002F911F91662332F0550FEE1FFF1F661F9F
:100A28007A9543F2DBDE5F91089599239AF0772354
:100A380042F0971748F029F4AE17BF07860720F051
:100A480031F0989488940895989408940895189487
:100A5800889408957723C2F7971798F3A9F7EA17A8
:100A6800FB07680788F399F3ECCFF09560957095CC
:100A7800E195FF4F6F4F7F4F08956F2F660F660BFD
:100A8800762F08950024112490E1AA0FBB1F001CA3
:100A9800111C0E1A1F0A18F40E0E1F1E01C0A160A9
:100AA8009A9599F7FD01D0010895ECDFFD010895AD
:100AB800A881B9818A819B810895E883F9836A8333
:100AC8007B8308955A934A933A932A931A930A93E5
:100AD80008955D814C813B812A811981088108959F
:00000001FF
