:060000000C9491000C9429
:1000060000000C9400000C9400000C9400000C946A
:1000160000000C9400000C9400000C9400000C945A
:1000260000000C9400000C9400000C9400000C944A
:1000360000000C9400000C94EC010C9400000C944D
:1000460000000C9400000C9400000C940000102793
:10005600E80364000A00010000100001100001001E
:10006600000000004F4E2044494E480031303025F4
:100076000039302500383025003730250036302548
:1000860000353025003430250043414E482042419A
:100096004F0033302500323025004E475559204851
:1000A60049454D0031302500476961205472693A4F
:1000B600200080C0040008006600080060026A0094
:1000C60005006802720004006D02770004007102E8
:1000D6007B00040075027F0004007902830004009F
:1000E6007D028700040081028B00090085028F00D3
:1000F60004008E029800040092029C000A009602F8
:10010600A0000400A002AA000300A40274000A00D2
:10011600A702AE000200B902B8000000F894EE276C
:10012600ECBBF1E0FBBFEBBFE5BF8DE0A2E0BB2778
:10013600ED938A95E9F780E098E0A0E6ED930197C4
:10014600E9F7EAEBF0E085919591009761F0A591CA
:10015600B59105901590BF01F00105900D9201979C
:10016600E1F7FB01F0CFEFE5EDBFE8E0EEBFC0E65B
:10017600D2E00C941E02AA93E881E064E7B98BE111
:100186008A95F1F7369A349BFECF349AE4B1F5B1ED
:100196000C9443032C97A0E0EEDF3F010E94450339
:1001A600EC83FD836E837F83AC81BD818E819F81CD
:1001B6000E9458030E9465030E946A03E887F98734
:1001C6006A877B872C960895BA93AA9360970E94B4
:1001D6005505EE89FF890E944503EA8BFB8B6C8BE4
:1001E6007D8BAA89BB898C899D890E945803EE87DD
:1001F600FF87688B798B0E941004EE83FF83AE81A4
:10020600BF81E8EEF3E00E9435058F01AE81BF8124
:10021600E8EEF3E00E944805DF01E4E6F0E00E9424
:1002260035059F01AE81BF81E4E6F0E00E944805F6
:10023600DF01EAE0F0E00E943505AF01AE81BF8143
:10024600EAE0F0E00E944805E887F987A02FA05D64
:100256000E94F002A22FA05D0E94F002ACE20E9472
:10026600F002A42FA05D0E94F002A885A05D0E9466
:10027600F002A6E50E94F002AE85BF8588899989BD
:100286000E946A03EA87FB876C877D870E94710359
:100296000E94760309F008F450C00E947D03A0E690
:1002A600B2E00E9405030E9482030E9471030E942D
:1002B600860328F00E94E402A8E6B2E03BC00E9452
:1002C60071030E948D0328F00E94E402ADE6B2E0BD
:1002D60031C00E9471030E94940328F00E94E40238
:1002E600A1E7B2E027C00E9471030E949B0328F099
:1002F6000E94E402A5E7B2E01DC00E9471030E94BD
:10030600A20328F00E94E402A9E7B2E013C00E940B
:1003160071030E94A90328F00E94E402ADE7B2E04F
:1003260009C00E9471030E94760330F00E94E40225
:10033600A1E8B2E00E9405033AC00E94B003F0F0C3
:100346000E947D03A5E8B2E00E940503979A0E94E9
:10035600820397980E9471030E94B80328F00E94B6
:10036600E402AEE8B2E007C00E94B00330F00E949B
:10037600E402A2E9B2E00E94050319C00E947D03CF
:10038600A6E9B2E00E940503979A0E9482030E94A2
:1003960071030E94BF0328F00E94E402A0EAB2E0C3
:1003A60004C00E94E402A4EAB2E00E9405030E948F
:1003B6005C0568960895A0E0DEDE2F01A7EAB2E0AC
:1003C6000E940503D20100DF0E9482030E94E4021C
:1003D6000895EA93FA93EFB7EA93BB2061F0BA94D3
:1003E600E82D8394F0E0EF54FD4FE081ECB9E8E0AE
:1003F600E81509F48824E991EFBFF991E991189578
:10040600AA93E8E0EB15E9F3F894BB2011F45D99A3
:100416000DC0E92D9394F0E0EF54FD4FA881A08321
:10042600E8E0E91509F49924B39402C0E881ECB92F
:1004360078940C9443032497E0E0EABBEBBBE7BB5C
:10044600E1E0E8BBE0E0E4BBE5BBE0E8E1BBE0E01F
:10045600E2BBE3BFE2BFECBFEFBDEEBDEDBDECBD61
:10046600E7BDE6BDEBBDEABDE9BDE8BDE2BDE5BD64
:10047600E4BDE3BDE9BFE5BFE4BFEBB9E8E9EAB92E
:10048600E6E8E0BDE0E0E0BDE3E3E9B9E0E8E8B9CD
:10049600E0E4E7B9E3E8E6B9E0E0E0BFEDB9E6BFDE
:1004A600A0E10E94160376DE0E9465030E94860381
:1004B60010F0A1E444C00E94C6030E948D0310F010
:1004C600A2E43DC00E94C6030E94940310F0A3E478
:1004D60036C00E94C6030E949B0310F0A4E42FC0FE
:1004E6000E94C6030E94A20310F0A5E428C00E9441
:1004F600C6030E94A90310F0A6E421C00E94C60309
:100506000E94760310F0A7E41AC00E94C6030E9458
:10051600B80310F0A8E413C00E94C603EEEAF7E49D
:1005260069E371E40E94080510F0A9E408C00E947E
:10053600C6030E94BF0310F0ABE401C0ACE460DF69
:100546003ADFB1CFFFCFAA93E881E07111F0AB9A01
:1005560001C0AB98E881E07211F0AA9A01C0AA988E
:10056600E881E07411F0A99A01C0A998E881E078C1
:1005760011F0A89A01C0A8988DE08A95F1F7AE9A75
:100586008DE08A95F1F7AE988DE08A95F1F778C0FF
:10059600AA93A881D8DFE881E295E883A881D3DF12
:1005A60085E88A95F1F76CC0AA93E881F0E0E754F4
:1005B600FD4FE081A981AE0FEBDFA980D88022969E
:1005C6000895A2E00E94C903ACE0E2DFA1E00E9428
:1005D600C903E0E0DE2EAE2E0895AA93A881AA30C4
:1005E60011F0AC1448F0E0E0EA93D394AD2DDCDFD3
:1005F600A881AA3009F444C0A394AC9AA881C8DFA4
:10060600AC983EC0BA93AA931A93A981BA81ED9188
:10061600A983BA831E2FE03019F0A12FDEDFF5CFB4
:10062600188123960895AA93A39AA29AA19AA09AAA
:10063600A69AA49AA59AAE98AC98AD98C880E88177
:10064600E058E093BB02E881E054E093BC02A4E1E9
:10065600B0E00E94D7030E94CF030E94CF030E94FE
:10066600CF03A0E270DF88EC90E00197F1F7A8E2F3
:100676008FDFA4E08DDFA5E88BDFA6E089DFA1DFB1
:1006860021960895662777270E944704A0E0B0E0E8
:1006960080EA90E40E947504DF01CB01E0E0F0EC13
:1006A6006FE774E40E94C3040895E4EAF0E765EB9B
:1006B60070E40E947504A0E0B0E088EC92E40E9429
:1006C600750408950E9450050E944B050895E0E0C8
:1006D600F0E068EC72E40E94C3040895AA85BB8525
:1006E6008C859D850895E6E6F6E66EE371E40E9444
:1006F60008050895E1E0EA93A1E00C94D702A8EE7C
:10070600B3E00C94D703E3E3F3E36BE471E40E94F4
:1007160008050895E0E0F0E068E471E40E94080549
:100726000895E2E5F8EB66E471E40E940805089591
:10073600E8EBFEE165E471E40E9408050895E3E351
:10074600F3E363E471E40E9408050895E3ECF5EF32
:1007560060E471E40E9408050895C0DFEEEAF7E45C
:1007660069E371E40E9408050895E0E0F0E06CE3B7
:1007760071E40E9408050895E3ECF5EF64E371E483
:100786000E94080508950E944B0508950E94CB0219
:10079600A3E0B0E00C94D703A0E30E94A60288EC85
:1007A60090E00197F1F70895109639F080ED97E003
:1007B6000197F1F7A8951197C9F70895552342F4C3
:1007C600503811F4E0FF04C03196691F791F6BF0B1
:1007D60050E8572711F45F9373C05F3F31F0660FFF
:1007E600000C57956795752F08955F9300200AF0C2
:1007F60073C06CC050E8192E1522880F991F9527D3
:10080600550F879550E8072E0522660F771F752727
:10081600550F67950895689401C0E8945F93F2DFD9
:10082600703818F07F3F08F44BC056E1571BAAF406
:10083600519558300EF4593030F0EFEFFFEF6FEF6F
:100846007FE777F91AC077275523B9F0EE0FFF1F18
:10085600661F771F5A95D1F710C07727583028F0B2
:10086600EF2FF62F672F5850F9CF552331F0769595
:100876006795F795E7955A95D1F700200AF4E5D0E4
:100886005F910895689401C0E89430976040704085
:10089600B1F0002426F0772312F40094D6D0172E58
:1008A6007EE1112032F07A95EE0FFF1F661F111CB4
:1008B600F9CFEF2FF62F612D5F938ADF5F910895B1
:1008C600EE27FF27662777275F910895EFEFFFEF63
:1008D6006FE77FEF5F910895EFEFFFEF6FE77FE739
:1008E6005F9108955F9386DF703851F3903841F336
:1008F60001240894791F23F41CF300203AF3ECCF6B
:100906000F921F932F933F934F93112722279927D7
:10091600689FA0018F9F302D410D591F6B9F300D91
:10092600411D591F8E9F27D0BF9F25D06A9F23D078
:10093600BE9F1DD0AF9F1BD0AE9F110D291F391F23
:10094600491F591FE32FF42F652F522F4F913F91C7
:100956002F911F910F9066232AF0550FEE1FFF1F50
:10096600661F02C073954BF229DF5F910895100D43
:10097600211D391F02C0200D311D491F591F089521
:100986005F9338DF703821F411200AF49FCFA4CF8B
:10099600903809F495CF01240894970B1BF4D4F3EF
:1009A6000020F3CF792F1F932F933F934F9311245A
:1009B6001127222733274427552790E2AE17BF0772
:1009C6008607410730F0AE1BBF0B860B410B089420
:1009D60001C08894551F221F331F111CAA1FBB1F5D
:1009E600881F441F9A9551F7F901612D4F913F9148
:1009F6002F911F91662332F0550FEE1FFF1F661FC2
:100A06007A9543F2DBDE5F91089599239AF0772376
:100A160042F0971748F029F4AE17BF07860720F073
:100A260031F09894889408959894089408951894A9
:100A3600889408957723C2F7971798F3A9F7EA17CA
:100A4600FB07680788F399F3ECCFF09560957095EE
:100A5600E195FF4F6F4F7F4F08956F2F660F660B1F
:100A6600762F08950024112490E1AA0FBB1F001CC5
:100A7600111C0E1A1F0A18F40E0E1F1E01C0A160CB
:100A86009A9599F7FD01D0010895ECDFFD010895CF
:100A9600A881B9818A819B810895E883F9836A8355
:100AA6007B8308955A934A933A932A931A930A9307
:100AB60008955D814C813B812A81198108810895C1
:00000001FF
